{
  "contractName": "VotingProposal",
  "abi": [
    {
      "constant": true,
      "inputs": [],
      "name": "proposal",
      "outputs": [
        {
          "name": "text",
          "type": "string"
        },
        {
          "name": "positiveVotes",
          "type": "uint256"
        },
        {
          "name": "negativeVotes",
          "type": "uint256"
        }
      ],
      "payable": false,
      "stateMutability": "view",
      "type": "function"
    },
    {
      "constant": true,
      "inputs": [],
      "name": "votersCount",
      "outputs": [
        {
          "name": "",
          "type": "uint256"
        }
      ],
      "payable": false,
      "stateMutability": "view",
      "type": "function"
    },
    {
      "constant": true,
      "inputs": [
        {
          "name": "",
          "type": "address"
        }
      ],
      "name": "voters",
      "outputs": [
        {
          "name": "",
          "type": "int8"
        }
      ],
      "payable": false,
      "stateMutability": "view",
      "type": "function"
    },
    {
      "inputs": [],
      "payable": false,
      "stateMutability": "nonpayable",
      "type": "constructor"
    },
    {
      "anonymous": false,
      "inputs": [
        {
          "indexed": false,
          "name": "_str",
          "type": "string"
        }
      ],
      "name": "LogString",
      "type": "event"
    },
    {
      "anonymous": false,
      "inputs": [
        {
          "indexed": false,
          "name": "_int",
          "type": "uint256"
        }
      ],
      "name": "LogUInt",
      "type": "event"
    },
    {
      "anonymous": false,
      "inputs": [
        {
          "indexed": true,
          "name": "_from",
          "type": "address"
        },
        {
          "indexed": false,
          "name": "_vote",
          "type": "int8"
        },
        {
          "indexed": false,
          "name": "_totalVotes",
          "type": "int256"
        }
      ],
      "name": "VoteReceived",
      "type": "event"
    },
    {
      "constant": true,
      "inputs": [],
      "name": "hasVoted",
      "outputs": [
        {
          "name": "",
          "type": "bool"
        }
      ],
      "payable": false,
      "stateMutability": "view",
      "type": "function"
    },
    {
      "constant": false,
      "inputs": [],
      "name": "upVote",
      "outputs": [],
      "payable": true,
      "stateMutability": "payable",
      "type": "function"
    },
    {
      "constant": false,
      "inputs": [],
      "name": "downVote",
      "outputs": [],
      "payable": true,
      "stateMutability": "payable",
      "type": "function"
    },
    {
      "constant": true,
      "inputs": [],
      "name": "getVote",
      "outputs": [
        {
          "name": "",
          "type": "int8"
        }
      ],
      "payable": false,
      "stateMutability": "view",
      "type": "function"
    },
    {
      "constant": true,
      "inputs": [],
      "name": "getProposalTotalCount",
      "outputs": [
        {
          "name": "",
          "type": "int256"
        }
      ],
      "payable": false,
      "stateMutability": "view",
      "type": "function"
    }
  ],
  "bytecode": "0x608060405234801561001057600080fd5b50606060405190810160405280606060405190810160405280602181526020017f54686973206973206d792066697273742050726f706f73616c206578616d706c81526020017f650000000000000000000000000000000000000000000000000000000000000081525081526020016000815260200160008152506000808201518160000190805190602001906100a89291906100c5565b50602082015181600101556040820151816002015590505061016a565b828054600181600116156101000203166002900490600052602060002090601f016020900481019282601f1061010657805160ff1916838001178555610134565b82800160010185558215610134579182015b82811115610133578251825591602001919060010190610118565b5b5090506101419190610145565b5090565b61016791905b8082111561016357600081600090555060010161014b565b5090565b90565b610940806101796000396000f3fe60806040526004361061008e576000357c0100000000000000000000000000000000000000000000000000000000900463ffffffff1680630242f351146100935780632ed606e5146100c457806364821338146100ce578063652204a4146100fd578063753ec1031461012857806398c07938146101c6578063a3ec138d146101f1578063eed7c1281461025c575b600080fd5b34801561009f57600080fd5b506100a8610266565b604051808260000b60000b815260200191505060405180910390f35b6100cc610336565b005b3480156100da57600080fd5b506100e3610593565b604051808215151515815260200191505060405180910390f35b34801561010957600080fd5b506101126105ed565b6040518082815260200191505060405180910390f35b34801561013457600080fd5b5061013d610600565b6040518080602001848152602001838152602001828103825285818151815260200191508051906020019080838360005b8381101561018957808201518184015260208101905061016e565b50505050905090810190601f1680156101b65780820380516001836020036101000a031916815260200191505b5094505050505060405180910390f35b3480156101d257600080fd5b506101db6106b0565b6040518082815260200191505060405180910390f35b3480156101fd57600080fd5b506102406004803603602081101561021457600080fd5b81019080803573ffffffffffffffffffffffffffffffffffffffff1690602001909291905050506106b6565b604051808260000b60000b815260200191505060405180910390f35b6102646106d6565b005b6000610270610593565b15156102e4576040517f08c379a00000000000000000000000000000000000000000000000000000000081526004018080602001828103825260148152602001807f4163636f756e74206861736e277420766f74656400000000000000000000000081525060200191505060405180910390fd5b600360003373ffffffffffffffffffffffffffffffffffffffff1673ffffffffffffffffffffffffffffffffffffffff16815260200190815260200160002060009054906101000a900460000b905090565b61033e610593565b1515156103b3576040517f08c379a00000000000000000000000000000000000000000000000000000000081526004018080602001828103825260118152602001807f63616e6e6f7420766f746520747769636500000000000000000000000000000081525060200191505060405180910390fd5b662386f26fc10000803410151515610433576040517f08c379a000000000000000000000000000000000000000000000000000000000815260040180806020018281038252601a8152602001807f496e73756666696369656e742066756e647320746f20766f746500000000000081525060200191505060405180910390fd5b60007fffffffffffffffffffffffffffffffffffffffffffffffffffffffffffffffff905060046000815480929190600101919050555080600360003373ffffffffffffffffffffffffffffffffffffffff1673ffffffffffffffffffffffffffffffffffffffff16815260200190815260200160002060006101000a81548160ff021916908360000b60ff1602179055506000600201600081548092919060010191905055503373ffffffffffffffffffffffffffffffffffffffff167fa7bc88a78d8064c3ab1ad0bd55b199fe3492200dc62cc147864ce7690b189f4d8261051b6105ed565b604051808360000b60000b81526020018281526020019250505060405180910390a25080341115610590573373ffffffffffffffffffffffffffffffffffffffff166108fc8234039081150290604051600060405180830381858888f1935050505015801561058e573d6000803e3d6000fd5b505b50565b600080600360003373ffffffffffffffffffffffffffffffffffffffff1673ffffffffffffffffffffffffffffffffffffffff16815260200190815260200160002060009054906101000a900460000b60000b1415905090565b6000806002015460006001015403905090565b6000806000018054600181600116156101000203166002900480601f01602080910402602001604051908101604052809291908181526020018280546001816001161561010002031660029004801561069a5780601f1061066f5761010080835404028352916020019161069a565b820191906000526020600020905b81548152906001019060200180831161067d57829003601f168201915b5050505050908060010154908060020154905083565b60045481565b60036020528060005260406000206000915054906101000a900460000b81565b6106de610593565b151515610753576040517f08c379a00000000000000000000000000000000000000000000000000000000081526004018080602001828103825260118152602001807f63616e6e6f7420766f746520747769636500000000000000000000000000000081525060200191505060405180910390fd5b662386f26fc100008034101515156107d3576040517f08c379a000000000000000000000000000000000000000000000000000000000815260040180806020018281038252601a8152602001807f496e73756666696369656e742066756e647320746f20766f746500000000000081525060200191505060405180910390fd5b60006001905060046000815480929190600101919050555080600360003373ffffffffffffffffffffffffffffffffffffffff1673ffffffffffffffffffffffffffffffffffffffff16815260200190815260200160002060006101000a81548160ff021916908360000b60ff1602179055506000600101600081548092919060010191905055503373ffffffffffffffffffffffffffffffffffffffff167fa7bc88a78d8064c3ab1ad0bd55b199fe3492200dc62cc147864ce7690b189f4d8261089c6105ed565b604051808360000b60000b81526020018281526020019250505060405180910390a25080341115610911573373ffffffffffffffffffffffffffffffffffffffff166108fc8234039081150290604051600060405180830381858888f1935050505015801561090f573d6000803e3d6000fd5b505b5056fea165627a7a72305820547e9f31209a323604d317f9dfec8ee3f7682a1fa4045a782eab9e41329ee2130029",
  "source": "pragma solidity ^0.5.0;\n\ncontract VotingProposal {\n\n  // Proposal Structure\n  struct Proposal {\n    string text;\n    uint positiveVotes;\n    uint negativeVotes;\n  }\n\n  // Defining proposal\n  Proposal public proposal;\n\n  // Array of voters key = addresses and values = their Vote\n  // values could be a struct of Voter but to keep it simple, we just going to save the vote (1, -1);\n  mapping(address => int8) public voters;\n\n  // number of addresses that voted\n  uint public votersCount;\n\n  constructor() public {\n    proposal = Proposal(\"This is my first Proposal example\", 0, 0);\n  }\n\n  // Just for debugging purposes\n  event LogString(string _str);\n  event LogUInt(uint _int);\n\n  modifier canVote {\n    require(!hasVoted(), \"cannot vote twice\");\n    _;\n  }\n\n  modifier costs(uint _amount) {\n    require(msg.value >= _amount, \"Insufficient funds to vote\");\n\n    _;\n\n    if (msg.value > _amount)\n      msg.sender.transfer(msg.value - _amount);\n  }\n\n\n  event VoteReceived(\n    address indexed _from,\n    int8 _vote,\n    int _totalVotes\n  );\n\n  function hasVoted () public view returns (bool) {\n    return voters[msg.sender] != 0;\n  }\n\n  /*\n   * An account cannot vote twice and must send 0.01 ether to be allowed to vote\n   */\n  function upVote()\n    public\n    payable\n    canVote\n    costs(0.01 ether)\n  {\n    int8 _vote = 1;\n    votersCount++;\n    voters[msg.sender] = _vote;\n    proposal.positiveVotes++;\n    emit VoteReceived(msg.sender, _vote, getProposalTotalCount());\n  }\n\n  /*\n   * An account cannot vote twice and must send 0.01 ether to be allowed to vote\n   */\n  function downVote()\n    public\n    payable\n    canVote\n    costs(0.01 ether)\n  {\n    int8 _vote = -1;\n    votersCount++;\n    voters[msg.sender] = _vote;\n    proposal.negativeVotes++;\n    emit VoteReceived(msg.sender, _vote, getProposalTotalCount());\n  }\n\n  function getVote() public view returns (int8) {\n    require(hasVoted(), \"Account hasn't voted\");\n    return voters[msg.sender];\n  }\n\n  function getProposalTotalCount() public view returns (int) {\n    return int(proposal.positiveVotes - proposal.negativeVotes);\n  }\n}\n",
  "sourcePath": "C:/Trabajo/proposal-voting-dapp/contracts/VotingProposal.sol",
  "compiler": {
    "name": "solc",
    "version": "0.5.0+commit.1d4f565a.Emscripten.clang"
  },
  "schemaVersion": "3.0.9",
  "updatedAt": "2019-05-18T23:08:58.188Z",
  "devdoc": {
    "methods": {}
  },
  "userdoc": {
    "methods": {}
  }
}